:100000000C9434000C9449000C9449000C94490061
:100010000C9449000C9449000C9449000C9449003C
:100020000C9449000C9449000C9449000C9449002C
:100030000C9449000C9449000C9449000C9449001C
:100040000C9449000C9449000C9449000C9449000C
:100050000C9449000C9464000C9449000C944900E1
:100060000C9449000C94490011241FBECFEFD8E036
:10007000DEBFCDBF11E0A0E0B1E0ECE5F8E002C0EA
:1000800005900D92A831B107D9F70E9449010C944F
:100090002C040C940000ECE7F0E080818064808305
:1000A000EAE7F0E0808187608083808180688083D8
:1000B000089583B7817F826083BFEAE7F0E08081A3
:1000C0008860808378940895189520E140E050E09E
:1000D000E8E7F0E093B7916093BF889593B79E7F70
:1000E00093BF80819181480F591F215099F7CA0110
:1000F000969587959695879508954F925F926F9202
:100100007F928F929F92AF92BF92CF92DF92EF92A7
:10011000FF92CF93DF9300D000D0CDB7DEB720E0C1
:1001200030E048EC52E40E949B030E94080420E067
:1001300030E048EC52E40E9414026B017C0120E0A4
:1001400030E040E251E40E9414024B015C0120E0E7
:1001500030E040E452E40E94A8010E948602862F0B
:100160000E948901C501B4010E94F2022B013C01E9
:1001700020E030E040E452E4C701B6010E94A8014B
:100180004B015C0120E030E040E251E4C301B201E8
:100190000E949B039B01AC01C501B4010E94A70111
:1001A0000E948602862F0E9489018EE20E948901A8
:1001B00020E030E040E251E4C701B6010E949B0319
:1001C0004B015C01C701B6010E94F2022B013C0108
:1001D00020E030E040E452E4C501B4010E94A801EF
:1001E00069837A838B839C8320E030E040E251E492
:1001F000C301B2010E949B039B01AC0169817A811A
:100200008B819C810E94A7010E948602862F0E94FA
:100210008901C501B4010E94F2024B015C0120E09A
:1002200030E048EC52E4C701B6010E949B0320E095
:1002300030E040E452E40E94A8016B017C0120E020
:1002400030E040E251E4C501B4010E949B039B01F0
:10025000AC01C701B6010E94A7010E948602862F49
:100260000E94890185E191E00E9491010F900F9019
:100270000F900F90DF91CF91FF90EF90DF90CF9094
:10028000BF90AF909F908F907F906F905F904F90B6
:1002900008950E94780180E091E00E9491010E94FF
:1002A0004B000E9459000E946500BC0180E090E074
:1002B0000E94B50227EC3BE447E450E40E949B0314
:1002C0002CE53FE842EA50E40E949B0320E030E046
:1002D00040E859E30E949B030E947D002FEF89E6CE
:1002E00098E1215080409040E1F700C00000DBCF52
:1002F0001092C50087E68093C400E0ECF0E08081B6
:100300008D7F808388E18093C10086E08093C20066
:100310000895E0ECF0E0908195FFFDCF8093C6005A
:1003200008950F931F93CF93FC018081882359F088
:100330008F01C0E00E948901CF5FF801EC0FF11D31
:1003400080818111F7CFCF911F910F91089550585F
:10035000BB27AA270E94BF010C9449030E943B03BC
:1003600038F00E94420320F039F49F3F19F426F43C
:100370000C9438030EF4E095E7FB0C940903E92F85
:100380000E945A0358F3BA17620773078407950748
:1003900020F079F4A6F50C9494030EF4E0950B2E5E
:1003A000BA2FA02D0B01B90190010C01CA01A001C7
:1003B0001124FF27591B99F0593F50F4503E68F122
:1003C0001A16F040A22F232F342F4427585FF3CF63
:1003D000469537952795A795F0405395C9F77EF434
:1003E0001F16BA0B620B730B840BBAF09150A1F07D
:1003F000FF0FBB1F661F771F881FC2F70EC0BA0F03
:10040000621F731F841F48F4879577956795B7958A
:10041000F7959E3F08F0B0CF9395880F08F0992785
:10042000EE0F9795879508950E9428020C94490332
:100430000E94420358F00E943B0340F029F45F3FC2
:1004400029F00C94090351110C9495030C94380372
:100450000E945A0368F39923B1F3552391F3951B36
:10046000550BBB27AA2762177307840738F09F5FD5
:100470005F4F220F331F441FAA1FA9F335D00E2E42
:100480003AF0E0E832D091505040E695001CCAF7AF
:100490002BD0FE2F29D0660F771F881FBB1F261772
:1004A00037074807AB07B0E809F0BB0B802DBF0149
:1004B000FF2793585F4F3AF09E3F510578F00C9418
:1004C00009030C9495035F3FE4F3983ED4F38695BB
:1004D00077956795B795F7959F5FC9F7880F911D39
:1004E0009695879597F90895E1E0660F771F881F25
:1004F000BB1F621773078407BA0720F0621B730BD8
:10050000840BBA0BEE1F88F7E09508950E946203F2
:1005100088F09F5798F0B92F9927B751B0F0E1F0C4
:10052000660F771F881F991F1AF0BA95C9F714C074
:10053000B13091F00E949403B1E008950C949403BB
:10054000672F782F8827B85F39F0B93FCCF38695AD
:1005500077956795B395D9F73EF49095809570950A
:1005600061957F4F8F4F9F4F0895E89409C097FB87
:100570003EF490958095709561957F4F8F4F9F4F7A
:100580009923A9F0F92F96E9BB279395F6958795BE
:1005900077956795B795F111F8CFFAF4BB0F11F481
:1005A00060FF1BC06F5F7F4F8F4F9F4F16C0882328
:1005B00011F096E911C0772321F09EE8872F762F5E
:1005C00005C0662371F096E8862F70E060E02AF09F
:1005D0009A95660F771F881FDAF7880F969587958B
:1005E00097F908950E947C0390F09F3748F4911189
:1005F00016F00C94950360E070E080E89FEB08959E
:1006000026F41B16611D711D811D0C940F030C94A3
:100610002A0397F99F6780E870E060E008958823D7
:1006200071F4772321F09850872B762F07C066232B
:1006300011F499270DC09051862B70E060E02AF0EC
:100640009A95660F771F881FDAF7880F969587951A
:1006500097F908959F3F31F0915020F48795779551
:100660006795B795880F911D9695879597F9089589
:100670009FEF80EC089500240A94161617061806BA
:100680000906089500240A94121613061406050696
:100690000895092E0394000C11F4882352F0BB0F27
:1006A00040F4BF2B11F460FF04C06F5F7F4F8F4F8A
:1006B0009F4F089557FD9058440F551F59F05F3FC5
:1006C00071F04795880F97FB991F61F09F3F79F074
:1006D00087950895121613061406551FF2CF4695F6
:1006E000F1DF08C0161617061806991FF1CF869578
:1006F00071056105089408950E946203A0F0BEE7A9
:10070000B91788F4BB279F3860F41616B11D672F00
:10071000782F8827985FF7CF869577956795B11DD5
:1007200093959639C8F30895E894BB2766277727F1
:10073000CB0197F908950E94AE030C9449030E94DF
:100740003B0338F00E94420320F0952311F00C94F3
:1007500009030C94380311240C9495030E945A0346
:1007600070F3959FC1F3950F50E0551F629FF00104
:10077000729FBB27F00DB11D639FAA27F00DB11D1D
:10078000AA1F649F6627B00DA11D661F829F2227A6
:10079000B00DA11D621F739FB00DA11D621F839F2D
:1007A000A00D611D221F749F3327A00D611D231F03
:1007B000849F600D211D822F762F6A2F11249F5751
:1007C00050409AF0F1F088234AF0EE0FFF1FBB1F54
:1007D000661F771F881F91505040A9F79E3F510513
:1007E00080F00C9409030C9495035F3FE4F3983E6A
:1007F000D4F3869577956795B795F795E7959F5FBD
:10080000C1F7FE2B880F911D9695879597F908954E
:100810000E946203E8F09E37E8F09639B8F49E38FB
:1008200048F4672F782F8827985FF9CF86957795BA
:10083000679593959539D0F3B62FB1706B0F711DF5
:10084000811D20F487957795679593950C940F03F8
:0C0850000C942A030C949503F894FFCF3D
:10085C000D0A4469676974616C20566F6C746D6520
:08086C007465720D0A0D0A000B
:00000001FF
